:020000040000FA
:100000000C941E430C944F430C944F430C944F4359
:100010000C944F430C944F430C944F430C944F4318
:100020000C944F430C944F430C944F430C944F4308
:100030000C944F430C944F430C944F430C944F43F8
:100040000C944F430C944F430C944F430C944F43E8
:100050000C944F430C944F430C944F430C94DC533B
:100060000C944F430C944F430C944F430C944F43C8
:100070000C944F430C944F430C944F430C944F43B8
:100080000C944F430C944F430C944F430C944F43A8
:100090000C944F430C944F430C944F430C942654B0
:1000A0000C944F430C944F430C944F430C944F4388
:1000B0000C944F430C944F430C944F430C944F4378
:1000C0000C944F430C944F430C944F430C944F4368
:1000D0000C944F430C944F430C944F430C944F4358
:1000E0000C944F430C94FB430C94B4430C94C047C2
:1000F0000C94254E0C944D530C94DF430C94CE433A
:100100000C9487490C9452430C949A490C941D53B7
:100110000C94D5430C949B500C946B490C9446550D
:100120000C9462530C94AF430C94184F0C94F3430B
:100130000C9461530C94D2430C94F7430C945143A8
:100140000C94EE460C94E9430C9493490C940544AA
:100150000C94C6430C943A530C94D6500C941F48FC
:100160000C94ED430C94DB430C94E5430C947B49D5
:100170000C9401440C94CA4300000000003E5B4F05
:100180005B3E3E6B4F6B3E1C3E7C3E1C183C7E3CF7
:10019000181C577D571C1C5E7F5E1C00183C180005
:1001A000FFE7C3E7FF0018241800FFE7DBE7FF3095
:1001B000483A060E2629792926407F050507407F03
:1001C00005253F5A3CE73C5A7F3E1C1C08081C1C76
:1001D0003E7F14227F22145F5F005F5F06097F016C
:1001E0007F006689956A606060606094A2FFA29457
:1001F00008047E040810207E201008082A1C080825
:100200001C2A08081E101010100C1E0C1E0C303872
:100210003E3830060E3E0E06000000000000005F73
:1002200000000007000700147F147F14242A7F2A8F
:100230001223130864623649562050000807030051
:10024000001C2241000041221C002A1C7F1C2A089D
:10025000083E080800807030000808080808000000
:1002600060600020100804023E5149453E00427F74
:10027000400072494949462141494D331814127FC3
:100280001027454545393C4A494931412111090763
:100290003649494936464949291E000014000000E4
:1002A00040340000000814224114141414140041B6
:1002B00022140802015909063E415D594E7C121173
:1002C000127C7F494949363E414141227F414141AB
:1002D0003E7F494949417F090909013E4141517326
:1002E0007F0808087F00417F41002040413F017F97
:1002F000081422417F404040407F021C027F7F045F
:1003000008107F3E4141413E7F090909063E4151A7
:10031000215E7F09192946264949493203017F0197
:10032000033F4040403F1F2040201F3F4038403F98
:10033000631408146303047804036159494D4300AE
:100340007F4141410204081020004141417F0402E5
:10035000010204404040404000030708002054547C
:1003600078407F284444383844444428384444285A
:100370007F385454541800087E090218A4A49C78AD
:100380007F0804047800447D40002040403D007F09
:100390001028440000417F40007C047804787C08E9
:1003A0000404783844444438FC18242418182424BD
:1003B00018FC7C08040408485454542404043F44A2
:1003C000243C4040207C1C2040201C3C4030403CD1
:1003D00044281028444C9090907C4464544C440031
:1003E0000836410000007700000041360800020195
:1003F0000204023C2623263C1EA1A161123A404081
:10040000207A3854545559215555794122545478FD
:1004100042215554784020545579400C1E52721296
:10042000395555555939545454593955545458001F
:1004300000457C410002457D420001457C407D1223
:1004400011127DF0282528F07C5455450020545485
:100450007C547C0A097F4932494949323A44444430
:100460003A324A4848303A4141217A3A424020786B
:10047000009DA0A07D3D4242423D3D4040403D3C6C
:1004800024FF2424487E4943662B2FFC2F2BFF0991
:1004900029F620C0887E0903205454794100004485
:1004A0007D413048484A32384040227A007A0A0A70
:1004B000727D0D19317D2629292F282629292926E3
:1004C00030484D4020380808080808080808382F28
:1004D00010C8ACBA2F102834FA00007B00000814B2
:1004E0002A142222142A14085500550055AA55AA88
:1004F00055AAFF55FF55FF000000FF00101010FF28
:1005000000141414FF001010FF00FF1010F010F082
:10051000141414FC001414F700FF0000FF00FF1473
:1005200014F404FC141417101F10101F101F1414BF
:10053000141F00101010F0000000001F1010101009
:100540001F10101010F010000000FF1010101010FD
:1005500010101010FF10000000FF140000FF00FF3B
:1005600000001F10170000FC04F4141417101714D7
:1005700014F404F40000FF00F714141414141414F9
:10058000F700F7141414171410101F101F1414146C
:10059000F4141010F010F000001F101F0000001FD6
:1005A00014000000FC140000F010F01010FF10FF09
:1005B000141414FF141010101F00000000F010FF9E
:1005C000FFFFFFFFF0F0F0F0F0FFFFFF0000000082
:1005D00000FFFF0F0F0F0F0F3844443844FC4A4A06
:1005E0004A347E02020606027E027E0263554941BB
:1005F000633844443C04407E201E2006027E0202F2
:1006000099A5E7A5991C2A492A1C4C7201724C3005
:100610004A4D4D303048784830BC625A463D3E49DC
:100620004949007E0101017E2A2A2A2A2A44445F80
:10063000444440514A444040444A51400000FF0174
:1006400003E080FF000008086B6B08361236243682
:10065000060F090F060000181800000010100030E7
:1006600040FF0101001F01011E00191D1712003C6F
:100670003C3C3C0000000000000022002500280057
:100680002B002E003100340002010000050108019A
:100690000B01050505050705080808080202020206
:1006A0000A0A08080404040401010101010101010E
:1006B0000303030303030303040707070C0C0C0CD9
:1006C0000C0C0C0C020202020606060606060606C2
:1006D0000B0B0B0B0B0B0B0B01021020200808104F
:1006E00020401020408002010201080402010102A2
:1006F000040810204080804020100804020180047B
:1007000002018040201008040201080402010102D5
:1007100004081020408001020408102040800000DE
:100720000A0B02090C0D0E0807030401000000006B
:1007300000000000000000000000000000000000B9
:100740000000000000000000000012111000000076
:100750000000000000000000000000000000000099
:100760000000000011007F96290001007F962800FC
:100770003A0155C0021010C10141C5040022804059
:10078000360168B00100B102B011B40102B6030233
:10079000023BB701C63A0155F704A9512C82B701B3
:1007A000C6E808408A00002919A533C0020D0DC112
:1007B000024300C20100C50400480048B40100B66D
:1007C0000302023BE00F0F211C0B0E084998380969
:1007D0001103141000E10F0F2F2B0C0E0647763774
:1007E000071104231E00B00100B30402000000B48E
:1007F0000100D003074218D103000710D202010202
:10080000D3020102D4020102C005123B000211C151
:1008100003101088C50103C60102C80C003236451A
:100820000616377577540C00CC0100F60301010061
:10083000CF03008130ED0464031281E80385107852
:10084000CB05392C003402F70120EA020000B00188
:1008500000B102001BB40100C00121C10111C50299
:100860003F3CC701B5360148F20100260101E00F07
:100870000F26240B0E0954A8460C17090F0700E198
:100880000F00191B0410072A473903060630380FDA
:10089000360100B80101C0010EB00100C104101002
:1008A0000202C006003500000102C50104D20201A7
:1008B00004CA0100EA0180B903FF83577F967F963F
:1008C000B60125C0065050013C1E08B40702400086
:1008D0002A2A0D787F01F20B161603080808081063
:1008E000041616FD03110235B2050C0C003333B7A4
:1008F0000135BB012BC00104C20201FFC30111C4B9
:100900000120C6010FD002A4A1E00ED000050E15F3
:100910000D3743470915121619E10ED000050D0CCD
:10092000062D44400E1C1816193A01557F0A060080
:100930000700B1020012B40102B60400202700CA69
:100940000101CB0103C001137F14C501CCC6010016
:10095000C70104C80103CC0106CD011CF90215151D
:10096000F3030A020AF603011000FA00FB00B001CB
:1009700003E2013FC00122E20100B00100C0010A10
:10098000B0010000000000000000000000000000B6
:10099000000000FFFF0F00000400620800080800CC
:1009A00003000C01030B5A0203060903031710048A
:1009B00003002305030017060309630703090C0856
:1009C000030C10090332221000160011000101125D
:1009D0000000001300010000013003010137020391
:1009E00001000D800200610201B0C1FFFF32000171
:1009F0000000010200000103003010090001000C9A
:100A0000000000900000800F0000001002000011A4
:100A100002EF001202000013028F01000500000126
:100A200005000002055F000104010004040000FF4E
:100A3000FF320007000001FFFF320000020000014A
:100A400002000000000000000000000000000000A4
:100A5000000100A4000100FFFF0A00600000270859
:100A60000008083000140231001537320004063344
:100A700000160E34001122350000153600078537A8
:100A800000071438000314390020009000150010EE
:100A900000100411003702290046002A0046000712
:100AA0000000001200890113000011FFFF960012E0
:100AB00000B901010000010200000203003010092A
:100AC0000001000A0000000D0000000E003000616F
:100AD0000001006A00000080000000810000008228
:100AE000005F009200000193000107FFFF50000724
:100AF000000001E500F0780100000102000002039F
:100B00000030100400000005000000080007020982
:100B10000000000A0000000C0000000D0000000FA3
:100B20000000001000000011000700120000001378
:100B300000000007000100FFFFC800100090161120
:100B4000002702FFFF320012000D00FFFF320013EA
:100B500000001229000A002B000D00FFFF320020C8
:100B600000000021000000300000003100040432C9
:100B70000003003500050436000808370007043874
:100B8000000303390007073C0004053D0008086026
:100B9000000027610001006A000000800000008161
:100BA0000000008200000083000000840000008537
:100BB000000000900010009200000007003301E5E3
:100BC0000000800000010001000001020000070396
:100BD0000030100400000008000202090000000AB2
:100BE0000000000C0000000D0000000F00000010CD
:100BF000000000110007001200000013000000FFB9
:100C0000FF32001000B01711000700FFFF0A0012AA
:100C1000003A01FFFF0A001300001A29000C00FF30
:100C2000FF0A0030000000310005053200040035E5
:100C300000060036000707370005013800020039BA
:100C40000007073C0004073D000708600000A7619B
:100C50000001006A00000021000000200000008068
:100C6000000000810000008200000083000000847A
:100C7000000000850000009000100092000000932A
:100C80000003009500100197000000980000000785
:100C9000007301FFFF3200010000010200000703A2
:100CA00000301008000203090000000A00080010CC
:100CB000000000110005001200000013000000FFFA
:100CC000FF64001000B012FFFF320011000700FFA8
:100CD000FF320012008C001300001729002000FFD3
:100CE000FF32003000000031000601320001013502
:100CF00000060136000302370000003800070739FC
:100D00000004023C0006013D000301600000A761F1
:100D10000001009000300007003301FFFF32001592
:100D20000030009A0010001100200010002834123A
:100D300000020013003810FFFF280012001200FF0D
:100D4000FF28001000203413004530FFFF4600301C
:100D500000000031000204320007033300040334B2
:100D6000000400350001043600070737000503388A
:100D70000010063900100601000001020000030304
:100D8000003010080008080A000800600000276111
:100D900000010090003E019200000193000001A0BC
:100DA000000030A300100007000100070021000729
:100DB000002300070033000700330111001A00125E
:100DC00000213113006C001400494210000008FF9C
:100DD000FF0A0011001A01FFFF0A0011001A03FFA9
:100DE000FF0A0011001A07FFFF0A0011001A0FFF87
:100DF000FF0A0011003A0FFFFF1E00010028010248
:100E00000000010300301007001210080003030B5C
:100E10000000110C0000000F000118150020005008
:100E20000001015100030652000804530000005461
:100E30000005065500060456000303570003035837
:100E40000010005900001007001200FFFF280007E3
:100E50000013000700170000000000000000000061
:100E60000000000000000000000000000000000082
:100E70000000000000000000000000000000000072
:100E80000000000000000000000000000000000062
:100E90000000000000000000000000000000000052
:100EA000000000010842080108000040100008404E
:100EB000186018000862180008411800102018A0D7
:100EC00028201820104010000001002100420001DD
:100ED00000010002080208010001000000000000FB
:100EE0000000000000000000000000000000000002
:100EF00000000000000000000000000000000000F2
:100F000000000000000000000000000000000000E1
:100F100000000000000000000000000000000000D1
:100F200000000000000000000000000000000000C1
:100F300000000000000000000000000000000000B1
:100F400000000000000000000000000000000000A1
:100F50000000000000000000000000000061082008
:100F60000000000000000000000000000021104010
:100F700010E128203140390031001040184018009D
:100F800010A028097B6EA44D9CC76A2010000800A1
:100F90000000000000410862102208010001000169
:100FA0000000000000000000000000000000000041
:100FB0000000000000000000000000000000000031
:100FC0000000000000000000000000000000000021
:100FD0000000000000000000000000000000000011
:100FE0000000000000000000000000000000000001
:100FF00000000000000000000000000000000000F1
:1010000000000000000000000000000000000000E0
:1010100000000000000000000000000000000000D0
:101020000000000000000000000000200020080078
:10103000080008000884410B9CB0CDF0DD6BA4A132
:101040004920180018C030698B13DE73E653E60E92
:10105000BD814120106110200800002000410800DF
:101060000800000000000000000000000000000078
:101070000000000000000000000000000000000070
:101080000000000000000000000000000000000060
:101090000000000000000000000000000000000050
:1010A0000000000000000000000000000000000040
:1010B0000000000000000000000000000000000030
:1010C0000000000000000000000000000000000020
:1010D0000000000000000000000000000000000010
:1010E00000000000000000000000000000000800F8
:1010F0000000000000000800080010876A4FCD9231
:10110000F6D2FEEEDD868BA051803084724ECD5239
:10111000EE8ED510E610E627830010601840100010
:101120000800000000000861100008000000000036
:1011300000000000000000000000000000000000AF
:10114000000000000000000000000000000000009F
:10115000000000000000000000000000000000008F
:10116000000000000000000000000000000000007F
:10117000000000000000000000000000000000006F
:10118000000000000000000000000000000000005F
:10119000000000000000000000000000000000004F
:1011A000002000000000000000000000000000001F
:1011B000000008000800080008200841186120A06D
:1011C00028EBA330EE0EEEECED4DF62EEE8DDD4C61
:1011D000D50FEE4FF62EF6EDED4FF62FEE49AC2083
:1011E0002000184018C0284231E1284010000800B3
:1011F00008000800080000000000000000000000D7
:1012000000000000000000000000000000000000DE
:1012100000000000000000000000000000000000CE
:1012200000000000000000000000000000000000BE
:1012300000000000000000000000000000000000AE
:10124000000000000000000000000000000000009E
:10125000000000000000000000000000000000008E
:10126000000000000000000000000000000000007E
:1012700000000000002008000800082010201000D6
:10128000100010001800200AAC70FE0CF669E5EAA8
:10129000ED8EFE2DF62EF60EF6ABEDCCF50CFEEC3B
:1012A000F52EFE2FF6A3820262436A898B8DAC2D48
:1012B0009C465A00100008000800080000000000CA
:1012C000000000000000000000000000000000001E
:1012D000000000000000000000000000000000000E
:1012E00000000000000000000000000000000000FE
:1012F00000000000000000000000000000000000EE
:1013000000000000000000000000000000000000DD
:1013100000000000000000000000000000000000CD
:1013200000000000000000000000000000000000BD
:1013300000000000000000000000004110000861F3
:1013400018854107526449A0308030847A2CD54EEC
:10135000FE2BFEC9EDC9ED0BF669E50DFE2DFEEC89
:10136000FD2CFECBF549EDCCF52DFECDED2CD56D4C
:10137000DD31EEB4F6D5F60FBDC451001000080003
:101380000800000000000000000000000000000055
:10139000000000000000000000000000000000004D
:1013A000000000000000000000000000000000003D
:1013B000000000000000000000000000000000002D
:1013C000000000000000000000000000000000001D
:1013D000000000000000000000000000000000000D
:1013E00000000000000000000000000000000000FD
:1013F00000000000000000000000000000000000ED
:10140000000008000885416FAC56EE34EE50D50D53
:10141000CD8EE54FFECCF5EBF54CFEEAF548DD034D
:10142000B4E092C092E092C3B3A6D4EBFD6EFE4A44
:10143000E50DFECCED2EF6EEE54DD532EEB1D5E85C
:101440007A00100008000800000000000000000002
:10145000000000000000000000000000000000008C
:10146000000000000000000000000000000000007C
:10147000000000000000000000000000000000006C
:10148000000000000000000000000000000000005C
:10149000000000000000000000000000000000004C
:1014A000000000000000000000000000000000003C
:1014B00000000000000000000001002100210000E9
:1014C000002100210020002008A02092CD33E6AFAB
:1014D000DD0FEECDEDEDEDCCED6EFE2DFEA7CCC01B
:1014E0008AE071207AC08A66BC45BC04B462A360FD
:1014F000820072019B86CCCBED2DFE29D5EDE591C6
:10150000FECFDDF2E5825100100008000800002146
:101510000021082100210000000000000000000060
:1015200000000000000000000000000000000000BB
:1015300000000000000000000000000000000000AB
:10154000000000000000000000000000000000009B
:10155000000000000000000000000000000000008B
:10156000000000000000000000000000000000007B
:1015700000000000000000000000000000621021D8
:1015800008010001000100010000000000200860C7
:1015900018EEBC52EE0FEE0EF60DFE0DFE4DFE8760
:1015A000C4C08A607A84A30BD52FF691FE6FF64EE5
:1015B000F60DEECCE54AD567BC83A3E092009328F4
:1015C000D58DFE2DF6ADE510EEB1E5C038602040BA
:1015D000182010200800000000000021000000007A
:1015E00000000000000000000000000000000000FB
:1015F00000000000000000000000000000000000EB
:1016000000000000000000000000000000000000DA
:1016100000000000000000000000000000000000CA
:1016200000000000000000000000000000000000BA
:1016300000000000000000000000000000000000AA
:101640000000000100000001004208621062086111
:1016500008611000082018CA9B10EECEF56BED0E45
:10166000FE0EFE67C483A3439388BC2FEED2FE51C7
:10167000EE8ED5EFE5CEDDCEDD30EED2FED2FEAE83
:10168000E568BC2193C08A85C42DF68CE5AEE54F94
:10169000DD0028202000100008201020082008214C
:1016A00000400000000000000000000000000000FA
:1016B000000000000000000000000000000000002A
:1016C000000000000000000000000000000000001A
:1016D000000000000000000000000000000000000A
:1016E00000000000000000000000000000000000FA
:1016F00000000000000000000000000000000000EA
:1017000000000000000000000000000100010801CE
:1017100008000000000000000860184020647A6E95
:10172000E52FFEADF5EDFD09DDC069849B8CD5B1DB
:10173000F672F68FD54BAC888B236223624362C569
:1017400072E99B2EC532EEB3FEACE5A3A3207AC8A6
:10175000D48FFEEEF58EE54272E03860202018202E
:101760001000082008210800000000000000000010
:101770000000000000000000000000000000000069
:101780000000000000000000000000000000000059
:101790000000000000000000000000000000000049
:1017A0000000000000000000000000000000000039
:1017B0000000000000000000000000000000000029
:1017C00000000000000000000000000000000021F8
:1017D0000822080100000000002008200820100056
:1017E0001800204051CBCC70FEEDFDA8CCA08A871C
:1017F000BC2EEE33FFD0DD888BA351A03020180023
:10180000180018001820188028C451CC9BB1DD3076
:10181000F62EF662A3A08A29DD6EFEACED8DE52AD8
:10182000ACAA93E772834100100008411000000049
:1018300000000000000000000000000000000000A8
:101840000000000000000000000000000000000098
:101850000000000000000000000000000000000088
:101860000000000000000000000000000000000078
:101870000000000000000000000000000000000068
:101880000000000000000000000000000000000058
:101890000000000000000000000000210881186125
:1018A00018201000100020204984826DE570FE0A87
:1018B000DD229B607ACDE54FEE8ECD6883214120FD
:1018C0001800100008001800100010201800100068
:1018D00018234187728FDD30F6EDF50193808AABD6
:1018E000EDECF54EFE50EE52EEF2DDCB93E1300022
:1018F0000861102008000000000000000000000047
:1019000000000000000000000000000000000000D7
:1019100000000000000000000000000000000000C7
:1019200000000000000000000000000000000000B7
:1019300000000000000000000000000000000000A7
:101940000000000000000000000000000000000097
:101950000000000000000000000000010000000086
:101960000041082008000820184241C67A4AB44DB8
:10197000DD90FE2EFE46BCE18A0ACD70F60CBDC697
:1019800072E03000100010411882200008000800AA
:101990000820102008000800102020EA9B0CC592A7
:1019A000FE6CE5608266C44EFECCEDCDE510E6949B
:1019B000F60FBDA449001020100008000000000030
:1019C0000000000000000000000000000000000017
:1019D0000000000000000000000000000000000007
:1019E00000000000000000000000000000000000F7
:1019F00000000000000000000000000000000000E7
:101A000000000000000000000000000000000000D6
:101A100000000000000000000000000000000000C6
:101A200000410000000100410800084018C872F39E
:101A3000DDD0E550FEEEF5EDF54BE5A4ABC08270D0
:101A4000F671EEC893003900102010011000080054
:101A500008010801080000000020004110211000CA
:101A6000086020CDBC6ED510F6A4A30193ECF5CB95
:101A7000ED2EF6CEDD73F6B1D5465A001000080003
:101A8000080000000000000000000000000000004E
:101A90000000000000000000000000000000000046
:101AA0000000000000000000000000000000000036
:101AB0000000000000000000000000000000000026
:101AC0000000000000000000000000000000000016
:101AD0000000000000000000000000000000000006
:101AE0000000000000000000006108000021080064
:101AF000086020CB93D2E5D0EDEEF5EDF5EDF5EDF8
:101B0000F58061ACDD2FEE31E6614100102010213F
:101B10001001082108010801000000000000000079
:101B2000000000000000086018602093F630EEEE20
:101B3000ED80616AE52DFE8ADD90F693EEA98B803B
:101B4000200008411000000000000000000000001C
:101B50000000000000000000000000000000000085
:101B60000000000000000000000000000000000075
:101B70000000000000000000000000000000000065
:101B80000000000000000000000000000000000055
:101B90000000000000000000000000000000000045
:101BA00000000000000000000000000000200061B4
:101BB0000800004108200880202CA4B5FECEEDCC02
:101BC000EDECF50CF6C8D420722EEE2FE68CACC0EE
:101BD0002800080108410801000208010001000076
:101BE0000000000000000000000000000020104085
:101BF000180EBD10E6CEE5207AA7CC0CF64DF68C7B
:101C0000DD09A4C25100100008000800080000000F
:101C100000000000000000000000000000000000C4
:101C200000000000000000000000000000000000B4
:101C300000000000000000000000000000000000A4
:101C40000000000000000000000000000000000094
:101C50000000000000000000000000000000000084
:101C60000000000000000000000000000000000074
:101C70000000002000400000004008000840184913
:101C800083D1DD30EECCEDCAED4CFEC3ABE0926FFC
:101C9000FEEEE5C672602000080008410800000161
:101CA0000001000100000000000000000000000032
:101CB00000000000082010077BF0E5EEE5429BC322
:101CC000ABECF5AFFE88BCC15940202010201000BD
:101CD00008000000000000000000000000000000FC
:101CE00000000000000000000000000000000000F4
:101CF00000000000000000000000000000000000E4
:101D000000000000000000000000000000000000D3
:101D100000000000000000000000000000000000C3
:101D200000000000000000000000000000000000B3
:101D30000000000000000000002000400000004003
:101D400008000000088341C6728EDD2DEECAE56CE6
:101D5000FE419BE4AB4EFECEDDE259401820100060
:101D60000020080000010002000100200000000027
:101D700000000000000000000000084018A1491009
:101D8000E60EEE46BC209BEBF56EFEA9BC80510032
:101D900018201020100108000001000000000000C1
:101DA0000000000000000000000000000000000033
:101DB0000000000000000000000000000000000023
:101DC0000000000000000000000000000000000013
:101DD0000000000000000000000000000000000003
:101DE00000000000000000000000000000000000F3
:101DF00000000000000000000000000000000040A3
:101E0000004000200040002008000840188028C43E
:101E10007A0EEE2CEE0BF6209366BC2FF6CFDD8209
:101E20004940182010000020080000010821082067
:101E30000020000000000000000000000000000082
:101E4000084018614110E62EEE86C4009BEBF52D8C
:101E5000FEADE5E582A03000100008211042080028
:101E60000000000000000000000000000000000072
:101E70000000000000000000000000000000000062
:101E80000000000000000000000000000000000052
:101E90000000000000000000000000000000000042
:101EA0000000000000000000000000000000000032
:101EB0000000000000000000000000000000000022
:101EC0000000000000200020002000200001002170
:101ED00010001000184028CEE56EF6CBED219306D9
:101EE000B42FF6D0E5E4590010200820084008205F
:101EF0000020000000200020000000000000000082
:101F00000801000008000840186562F0DD2EEEC3ED
:101F1000AB60A3CAF5CCF570FE0CC547834239000F
:101F20000821080108000000000000000000000077
:101F300000000000000000000000000000000000A1
:101F40000000000000000000000000000000000091
:101F50000000000000000000000000000000000081
:101F60000000000000000000000000000000000071
:101F70000000000000000000000000000000000061
:101F80000000000000000000000000000000002130
:101F900000010001002110001040206051CEE50D2D
:101FA000EE0CF6A4AB239BCFED11EE288320180096
:101FB0000840084008200040000000000000000029
:101FC000000000000001000108010800082018CBF3
:101FD00093D0DD0FF6E09203BCEAF5ABED2EF60EE2
:101FE000E6F0DD89836018000800000000000000B2
:101FF00000000000000000000000000000000000E1
:1020000000000000000000000000000000000000D0
:1020100000000000000000000000000000000000C0
:1020200000000000000000000000000000000000B0
:1020300000000000000000000000000000000000A0
:102040000000000000000000000000000000000090
:102050000020000000410842080108001000106044
:10206000286BB42FEE6ADD8EFE87C460828DE53268
:10207000EE6DAC80280010200820000000400020F9
:10208000000000000000000000010001080108003D
:102090000800082018CFBCB0E530F66082A6CC0B53
:1020A000FE0CFEABE5CCDD13F78DA48018000821F3
:1020B0000800000000000000000000000000000018
:1020C0000000000000000000000000000000000010
:1020D0000000000000000000000000000000000000
:1020E00000000000000000000000000000000000F0
:1020F00000000000000000000000000000000000E0
:1021000000000000000000000000000000000000CF
:102110000000000000000000004108210000004114
:102120001000104020CFBCF0E52DEE2BEE2BF66911
:10213000DD00728DE531EEB1DD456A0010200881C9
:1021400010200000006100200020000000000001BD
:10215000000108010800084018814912E6F1ED511C
:10216000FE4061EDF5EBF56AE50DF68FF691E60BB5
:102170009480180000220800000000000000000009
:10218000000000000000000000000000000000004F
:10219000000000000000000000000000000000003F
:1021A000000000000000000000000000000000002F
:1021B000000000000000000000000000000000001F
:1021C000000000000000000000000000000000000F
:1021D00000000000000000000000000000000020DF
:1021E000002000000040100010224134E6EFE52DF1
:1021F000EE4BF688DD4CF6E18A029351FE11EEA912
:102200009B21390010200840082000000000000039
:1022100000000001080108010800082010A0208B20
:10222000AC6FDDF0F545A3C2920EFE2DFEB0FE4F61
:10223000F66CCDCCACC7624010000001000000007D
:10224000000000000000000000000000000000008E
:10225000000000000000000000000000000000007E
:10226000000000000000000000000000000000006E
:10227000000000000000000000000000000000005E
:10228000000000000000000000000000000000004E
:10229000000000000000000000000000000000003E
:1022A000000000000000000000000020100010638B
:1022B0004154E6F1E50EE66DF668D5AEFEE8CC00D9
:1022C00072AEED11F66FD5488BE030000820086043
:1022D0000820080108010800080110000800082073
:1022E00010A028668330EE91FE6DE560618CE5ED0F
:1022F000EDADE56DDD29ACA472E35101290000408C
:1023000008200000000000000000000000000000A5
:1023100000000000000000000000000000000000BD
:1023200000000000000000000000000000000000AD
:10233000000000000000000000000000000000009D
:10234000000000000000000000000000000000008D
:10235000000000000000000000000000000000007D
:10236000000000000000000000000000000100016B
:102370000821100010A128CC93D2DD10E690FE4D6C
:10238000F62DEE0DF6A08A0393AFED52FEB0DD27D9
:1023900083E0300010000800082018001000100032
:1023A00010001060208241A56AADD5EDE58BDD01FE
:1023B00093E1926FFEEDEDCEE54272204960202060
:1023C000100008000061082000000000000000006C
:1023D00000000000000000000000000000000000FD
:1023E00000000000000000000000000000000000ED
:1023F00000000000000000000000000000000000DD
:1024000000000000000000000000000000000000CC
:1024100000000000000000000000000000000000BC
:1024200000000000000000000000000000000001AB
:102430000001000100010001080008001003390933
:102440007BEB9B09A46DD5CDE56FFE88CC4082283F
:10245000BC4DE552FEB0DDC993C251C030602020B2
:1024600020002000204028C038035ACA9B6ECDB1FE
:10247000FE2DEE008BA082AAE58ADD0DEE50F6005F
:1024800041002000182010000820006008200000F3
:10249000000000000000000000000000000000003C
:1024A000000000000000000000000000000000002C
:1024B000000000000000000000000000000000001C
:1024C000000000000000000000000000000000000C
:1024D00000000000000000000000000000000000FC
:1024E00000000000000000000000000000000000EC
:1024F0000000000000000021080100000001002190
:10250000080008000800100239602863728EDD0E92
:10251000F64EFEE8D4A18A24A3EBD492FE92F62EC6
:10252000CDE99B0783246A4572A77A088BC9A3ED7E
:10253000C411EED3FEADE525B4C08A48DDEAEDA9AD
:10254000E5ECED2FEEC259001820184218010000EA
:10255000002000200000000000000000000000003B
:10256000000000000000000000000000000000006B
:10257000000000000000000000000000000000005B
:10258000000000000000000000000000000000004B
:10259000000000000000000000000000000000003B
:1025A000000000000000000000000000000000002B
:1025B000000000000000000000000000080008000B
:1025C0000000000000210041080000000040180049
:1025D00010A0380CCD6BE50BFE2BFEA3B3029B4382
:1025E0009BA9C40FF691FE30EEAFDD6ED58FDDB046
:1025F000E5F0ED71FE91FEF0ED4DD52393407A6646
:10260000BC6DFE47D56BF60CEE0FEE89936028008B
:10261000100108010001002100410000000000003D
:1026200000000000000000000000000000000000AA
:10263000000000000000000000000000000000009A
:10264000000000000000000000000000000000008A
:10265000000000000000000000000000000000007A
:10266000000000000000000000000000000000006A
:10267000000000000000000000000000000000005A
:102680000000080000000020000000000061082099
:102690000082100008A128A0304ED54FFEEBF5A90E
:1026A000ED6EFEA8D4A08A207AA4A34BDD0EF62FEF
:1026B000F62FF62FEEEEEDCEEDEDED4BDD85A3C062
:1026C00069E28A6CE56EFECAE54CF6CADD0DE610DD
:1026D000E651C503390008010801004208420041E3
:1026E00000000000000000000000000000000000EA
:1026F00000000000000000000000000000000000DA
:1027000000000000000000000000000000000000C9
:1027100000000000000000000000000000000000B9
:1027200000000000000000000000000000000000A9
:102730000000000000000000000000000000000099
:102740000000000000000000000000000000002069
:102750000020002000000020000008001045626EEC
:10276000CD2EEE8ADD0BF6ABED0DF60DF629DD2153
:102770009300728082808288C446B4E5AB2293E0E5
:1027800071C07163A309D58BE52DF62DF62DEE2DC5
:10279000E62EE671EE12DE11B54431000841080064
:1027A000000000820800000000000000000000009F
:1027B0000000000000000000000000000000000019
:1027C0000000000000000000000000000000000009
:1027D00000000000000000000000000000000000F9
:1027E00000000000000000000000000000000000E9
:1027F00000000000000000000000000000000000D9
:1028000000000000000000000000000000000000C8
:1028100000000000002000200020000000410820EF
:10282000082010255A90CDB2F62DEE2DF64EFE2E34
:10283000FE2EF62DFE69DDC7CC08DDA7CC008B216E
:102840009383A306B4A8CC4ADDCCF54DFEAFFE6E53
:10285000FE6BD50BC56DCDF1DD53E692C5C54120AC
:10286000080000611020002000410000000000006E
:102870000000000000000000000000000000000058
:102880000000000000000000000000000000000048
:102890000000000000000000000000000000000038
:1028A0000000000000000000000000000000000028
:1028B0000000000000000000000000000000000018
:1028C0000000000000000000000000000000000008
:1028D0000000000000000000000000200020002098
:1028E0000000000000010000088441EFB493F6717D
:1028F000F62FEECEE58DDD8CDD8FFEAEFE0BF6EB1A
:10290000ED49DDEBE52CEECCE5ACE52DF64EFEEB2E
:10291000EDAAE52CEE87B4E061C0380039A3490682
:102920005A844100080000200840080000200021CF
:102930000021000000000000000000000000000076
:102940000000000000000000000000000000000087
:102950000000000000000000000000000000000077
:102960000000000000000000000000000000000067
:102970000000000000000000000000000000000057
:102980000000000000000000000000000000000047
:102990000000000000000000000000000000000037
:1029A000002000200020000000000022080000613C
:1029B00018C86A4CA46BAC29A4C159C059A27A2B7F
:1029C000CD6EF60CEE2DF64DFECBE56EF66FF62EC7
:1029D000EE2EF62DF62CEE8EF6D0FE68AC204900D9
:1029E0001800180010611820102008400820080066
:1029F0000000002000000021000000000000000096
:102A000000000000000000000000000000000000C6
:102A100000000000000000000000000000000000B6
:102A200000000000000000000000000000000000A6
:102A30000000000000000000000000000000000096
:102A40000000000000000000000000000000000086
:102A50000000000000000000000000000000000076
:102A60000000000000000000000000000000002145
:102A700000621000080008601821310031E03000C9
:102A8000180010E03809A40FEECCE5CCE52EF66F67
:102A9000F6EEDD4DCD6DD52FEE4FEEEDDDCCD52F25
:102AA000E66683602820184220011001080000001B
:102AB0000000000000200041082008000000000085
:102AC0000000000000000000000000000000000006
:102AD00000000000000000000000000000000000F6
:102AE00000000000000000000000000000000000E6
:102AF00000000000000000000000000000000000D6
:102B000000000000000000000000000000000000C5
:102B100000000000000000000000000000000000B5
:102B200000000000000000000000000000000000A5
:102B300000000000000000610821080008000000FB
:102B40000800080008A1284018A028688B10E6306B
:102B5000EEEEE5ADDD2DC5A472E0388051E89B0FA7
:102B6000DEB2F630DEF0D5E7720010000843100246
:102B700008010800000000000000004008410800B3
:102B8000000000210800000000000000000000001C
:102B90000000000000000000000000000000000035
:102BA0000000000000000000000000000000000025
:102BB0000000000000000000000000000000000015
:102BC0000000000000000000000000000000000005
:102BD00000000000000000000000000000000000F5
:102BE00000000000000000000000000000000000E5
:102BF00000000000000000000000000000000020B5
:102C00000041084108410841106210000800080016
:102C100008C449EEB472EE92F611DE2883E030006B
:102C2000102018E3514CA453DEF2D52C9426520008
:102C30001000080108000041084100400040002049
:102C400000200000080000210841080000000000EA
:102C50000000000000000000000000000000000074
:102C60000000000000000000000000000000000064
:102C70000000000000000000000000000000000054
:102C80000000000000000000000000000000000044
:102C90000000000000000000000000000000000034
:102CA0000000000000000000000000000000000024
:102CB0000000000000000000000000000000000014
:102CC0000061080000000000002108000001000170
:102CD000082208A31800086018A7628DA4CDACEBE9
:102CE0009380200010A02860180008A020E449016B
:102CF0003140104010000820082108000041002049
:102D000000200040000000200000082108210800E9
:102D100000000000000000000000000000000000B3
:102D200000000000000000000000000000000000A3
:102D30000000000000000000000000000000000093
:102D40000000000000000000000000000000000083
:102D50000000000000000000000000000000000073
:102D600000000000000000000082102000000000B1
:102D700000000020000000200000008210620820F7
:102D8000006108000000004000000000002000403A
:102D90000800000000010001000000000000080021
:102DA00008000800100008000800080008000800DB
:102DB00008000800080008000000000000000000F3
:102DC000000000000000002000200000004008007B
:102DD0000000082110000000000000410800000071
:102DE0000020000000000000002000200000006122
:102DF0000820004108000000000000000000002042
:102E000000200000000000000000000000000000A2
:102E100000000000000000000000000000000000B2
:102E200000000000000000000000000000000000A2
:102E30000000004108A2104108610800006208007B
:102E40000000000000000000000000C21000002090
:102E50000040082000000000006108A210000000EF
:102E6000000000000000000000000800000000005A
:102E70000000000000000000000000000000000052
:102E800000000000000000000000000000400020E2
:102E900000200061100008000021082108821000B5
:102EA0000000002100610820000000000020000058
:102EB00000200020000000000000000000000000D2
:102EC0000000000000000000000000000000000002
:102ED00000000000000000000000000000000000F2
:102EE00000000000000000000000000000000000E2
:102EF000000000C31841082000200000000000006E
:102F000000821000004108E318C318042182100059
:102F1000004108000021002108000000000000001E
:102F200000000000000000000000000000000000A1
:102F30000000000000000000000000000000000091
:102F40000000000000000000000000000000000081
:102F5000000000200020000000200000002008A247
:102F600018000000000000000000000000000061E8
:102F700008E320C3180000410861080000821082A5
:102F800010610800000000000000000000000000C8
:102F90000020000000000000000000000000000011
:102FA0000000000000000000000000000000000021
:102FB00000000000000000000000002421A63108ED
:102FC00042452920000000A210000028429294757A
:102FD000AD34A56D6B042100002108000000000045
:102FE0000000000000210061080000000000000057
:102FF00000000000000000000000000000000000D1
:1030000000000000000000000000000000000000C0
:1030100000000000000000000040008210000000DE
:1030200000E320E7392842821021086108000041AE
:10303000080842108455AD55ADAE734108000082BA
:1030400010200000000000000000002000200020F0
:103050000000000000000000000000000000000070
:103060000000000000000000000000000000000060
:1030700000000000000000000000000000000065EB
:103080002996B5FFFFFFFFD7BDE739410800006172
:103090000892949EF7FFFFDFFFDBDE6D6B00000000
:1030A0000000002000610821000000000020000056
:1030B0000000000000000000000000000000000010
:1030C0000000000000000000000000000000000000
:1030D00000000000000000000000000000000000F0
:1030E0000041080000494A75AD3CE7BEF759CE24BF
:1030F0002100002000E318718CFFFFFFFFDFFF5D60
:10310000EFE73900008210610820004108A210009A
:10311000000000200020000000000000000000006F
:10312000000000000000000000000000000000009F
:10313000000000000000000000000000000000008F
:10314000000000000092941CE7DFFFDFFFBEF734B1
:10315000A5084200003084BAD6FFFFFFFFFFFF9EA4
:10316000F7718C0000811061080000000000004130
:1031700008410800000000000000000000000000FE
:10318000000000000000000000000000000000003F
:10319000000000000000000000000000000000002F
:1031A0000000000000611020000000CF7B7DEFFFD9
:1031B000FFFFFF9EF7518CCB5AE7416D7359CEFF4D
:1031C000FFFFFFBEF7FFFF8E73000000000000004E
:1031D00000200020000000000000000000000000AF
:1031E00000000000000000000000000000000000DF
:1031F00000000000000000000000000000000000CF
:10320000000000000000000000000055ADFFFFFFBF
:10321000FFDFFFFFFFBEF7DFFFFFFF3CE7FFFFFF22
:10322000FFDFFFDFFFFFFFD7BD853100000000009B
:10323000008210821020000000000000000000004A
:10324000000000000000000000000000000000007E
:10325000000000000000000000000000000000006E
:103260000000000000000000000000210800002015
:1032700000F39CFFFFDFF7FFFFFFFFFFFF7DEF1C69
:10328000E7BEFFFFFFDFFFFFFFFFFFFFFFF7BD65AB
:1032900029000020006108A21061084108200000F8
:1032A00000000000002000000000000000000000FE
:1032B000000000000000000000000000000000000E
:1032C00000000000000000000000000000000000FE
:1032D0000059CEFFFFFFFF5DEFFFFFFFFFFFFFFF86
:1032E000FFFFFFFFFFDFFFFFFFFFFFFFFF5DEFEFD0
:1032F0007B0321284255ADFFFFBAD6694A00006121
:103300000820002000000000000000000000000075
:1033100000000000000000000000000000000000AD
:10332000000000000000000000000000000000009D
:103330000000004108C31896ADFFFF9EEFFFFFFF9E
:10334000FFFFFFFFFFFFFFFFFFDFFFDFFFDFFFFFED
:10335000FFBEF7FFFF8E730421AA5234A59EF79E8D
:10336000F7C31882102000000000002000000000B9
:10337000000000000000000000000000000000004D
:103380000000000000000020000000EB5AAE73288F
:1033900042C3180000694AFFFFDFFFBEF7FFFFDFEF
:1033A000FFFFFFFFFFFFFFFFFFFFFFDFFFFFFFFF4D
:1033B000FFFFFFDFFFDFFFFFFFFFFFFFFFDFFFFF7D
:1033C000FF9EF7E73920000000610800000000823E
:1033D0001000000000410800000000000000000094
:1033E000000000000000002000200020000000007D
:1033F000002842CF7B694A62102008694AFFFFFF1C
:10340000FF7DEFFFFFFFFFFFFFFFFFFFFFFFFFFF5E
:10341000FFFFFFFFFFFFFFFFFFDFFFDFFFFFFFFFFC
:10342000FFFFFFFFFFFFFF1CE7494A82100000007B
:103430000041080000000000000000000000000043
:103440000000000000000000000000000041086DC6
:103450006B38C67DEFBEF7DFFFBAD6FFFFFFFFFF79
:10346000FFFFFFDFFFBEF71CE755AD6D6BCF7B9213
:103470009475AD38C63CE7FFFFFFFFDFFFFFFFBEDF
:10348000F7FFFFFFFF9EF7FFFF6D6B00000000419D
:10349000082000000020000000000041080000009B
:1034A00000000000000000000000000000000020FC
:1034B00000000082108E7359CEFFFF7DEF7DEF9EDE
:1034C000F7FFFF9EF7FFFF7DEFDFFFFFFF79CE964F
:1034D000B5718CCF7B108434A5BAD6FFFFDFFFFF18
:1034E000FFDFFFDBDEFFFFFFFF7DEFFFFFFFFF6979
:1034F0004A4108200000006108A210610800000095
:1035000000000000000000000000000000000000BB
:1035100000000082109AD6FFFFFFFFDFFFFFFFFBD6
:10352000DEFFFFDFFF9EF79AD6B294494AA63130FC
:10353000843CE759CE96B5518C0C63AA52AE7318F1
:10354000C6FFFFFFFFDFFF9EF7FFFFFFFFFFFF0C40
:1035500063000000000000000000000000200020C8
:10356000000000000000000000000000000000005B
:10357000000000000041080000042138C6FFFFFFE2
:10358000FFFFFFFFFF7DEFDFFFDFFF7DEF5DEF3030
:1035900084C7392C63108434A518C6D7BD718CCB71
:1035A0005AC739EF7BDBDEDFFFDFFFFFFFDFFFDF27
:1035B000FFBEF7FFFF0842000061080000000000A6
:1035C00000000000000000000000000000000000FB
:1035D00000000000000000000061089AD6FFFFBE56
:1035E000F79EF7DFFFBEF7FFFFBEF7718C8A523000
:1035F000843CE7FFFFBEF71CE7FFFFDFFFFFFFFF95
:10360000FF5DEF55AD8E73AA523CE7FFFFFFFF3C15
:10361000E7FFFF3CE72000610820002000000020B9
:10362000000000200020000000000000000000005A
:10363000000000000000000000200041080000041D
:103640002179CEFFFF7DEFBEF7FFFF9EF7FFFF7DE5
:10365000EFAE730C63718CFFFFFFFFFFFFFFFFFFF7
:10366000FFFFFFFFFFFFFFFFFFF39C284230841C9A
:10367000E7DFFFFFFFFFFFFFFF9EF7E3180000E318
:103680001820002000410800000000000000000099
:1036900000000000000000000000000000000041E9
:1036A00008F39CFFFFFFFFFFFFFFFFFFFF79CE281E
:1036B00042F39C7DEFFFFFDFFFBEF7FFFFFFFFFF41
:1036C000FFFFFFFFFFFFFFFFFF5DEFBAD638C6EB3E
:1036D0005A96B5FFFFDFFFFFFF1CE76108000000FF
:1036E0000000002000610800000000000020000031
:1036F00000000000000000000000000000000000CA
:103700000000000000E31855ADFFFFFFFFFFFFFFC3
:10371000FFFFFF18C64D6B34A51CE7FFFFDFFFFF5F
:10372000FFDFFFDFFFDFFFDFFFDFFFFFFFFFFFFF49
:10373000FFFFFF1084CF7B1CE7DFFFBEF7FFFF9A80
:10374000D6E318000061080000000020008210008D
:103750000000000000000000000000000000000069
:1037600000000000000000CB5A7DEFDFFFFFFF9E4E
:10377000F7F7BDCB5A38C69EF7BEF79EF7FFFFFBA3
:10378000DE10842842E3188A529294F7BD7DEFFF41
:10379000FFFFFF5DEFF39C6D6B38C6FFFF7DEF5DB4
:1037A000EF2C630000C318410800000000410841ED
:1037B0000800000000000000000000000000000001
:1037C000000000000061082000000000000C635DA4
:1037D000EFFFFFDFFFFFFF75ADCF7B34A5BEF7FF27
:1037E000FFBEF77DEFF7BDB294EB5AE739494AEFD8
:1037F0007B38C6DFFFDFFF7DEFFFFFD39CAA529A25
:10380000D6FFFFFFFFBEF72C6324218210000000CB
:103810000020000000000000000000000000000088
:1038200000000000000000000000000000494A7D88
:10383000EFDFFFFFFF1CE79294D39C5DEFFFFFFFDC
:10384000FFD7BD494A000000000421821041080052
:103850000041088A5255AD5DEFFFFFFFFF92944D86
:103860006BDBDE7DEFDFFFFFFF59CE518C8E73A641
:103870003100002000821000000000000000000065
:1038800000000000000000000000002000200000F8
:10389000000000694A9EF7FFFFFFFF7DEF108430B4
:1038A000849EF7FFFFFFFFF39C4D6B0000000000BC
:1038B0000041086108A210E3182421FBDEDBDEFFD3
:1038C000FFDFFF718C8E73BAD6DFFFFFFFBAD675AC
:1038D000AD9294CF7B284220000000000000000041
:1038E00000000000000000000000000000000000D8
:1038F0000082102C63FFFFFFFF7DEF55ADAA52FF42
:10390000FFFFFF5DEFCF7BA2100000410800002009
:103910000020000000410800000000E3189294FF1E
:10392000FFFFFFFFFF4D6B96B5DFFFBEF7FFFFFF09
:10393000FFFFFFDFFF14A52421000000000000416D
:10394000080000000000000000000000000000006F
:10395000000000610820008210EB5AFFFFDFFFFF2C
:10396000FF3084718CFFFFFFFF5DEF9294C318005E
:103970000020000000000000000000000000002007
:1039800000000034A5BEF7FFFFBEF79294AE73FFB0
:10399000FF9EF7FFFFFFFFDFFFBEF755AD042100DD
:1039A00000000000000000821000004108610800D3
:1039B000002000E739AE731CE7FFFFFFFFFFFF9A0F
:1039C000D62842DFFFDFFFFFFF8E73610800000093
:1039D00000000041080000000061080000000061D4
:1039E000080000E318CF7BFFFFBEF7DFFF0C631872
:1039F000C6FFFFFFFFFFFFFFFF3CE7FFFFAA5200EC
:103A0000006108000000000000000000000000004D
:103A10000000000000000000008631718C18C69E76
:103A2000F7FFFFFFFF9EF7E7391CE7FFFFBEF7CF69
:103A30007B82106108000000000000000000000010
:103A40000000000000000000000000AE73BEF7FFA1
:103A5000FFDBDEAE7359CEFFFF9EF7FFFFFFFF7D5A
:103A6000EFBEF70842200000000000000020000028
:103A7000000000200082108E733CE7DFFF9EF7FFFE
:103A8000FFBEF7FFFF9294B294FFFFFFFF14A5E77C
:103A9000390000000000000000200000000000418C
:103AA00008000000008210000000002421B6B5DFED
:103AB000FFFFFFB2949294DFFFDFFFFFFFDFFFFF06
:103AC000FFFFFFC7390000610800008210000000FE
:103AD00000000000000000000000000000718CBA2F
:103AE000D6DFFFFFFFFFFFFFFF7DEFEF7B14A5FF9A
:103AF000FFDFFF34A5E739000000002000000000D0
:103B00000000000000000000000000000020000095
:103B100000C73934A5DFFF7DEFF39C518CFFFFFF19
:103B2000FFBEF7DFFFFFFFFFFFC739000000000007
:103B30000000004108610841080000C31814A5FFF7
:103B4000FFFFFFFFFFFFFF9EF7BEF7694A3CE7FF5D
:103B5000FFBEF7E7396108000020000000000020E8
:103B600000000000002000000000002000410800CC
:103B7000000000694A7DEFFFFFDBDE0C637DEF9EF6
:103B8000F7FFFFBEF7FFFFB6B54108000082100047
:103B90000000000000000000000000000000000025
:103BA000000000F7BDFFFFFFFFFFFFDFFFFFFF9EED
:103BB000F70842BEF7FFFFFBDE494A200000000085
:103BC000006108000000000000000000000000008C
:103BD000000000410800002000494A1CE7FFFF9A4E
:103BE000D6AA52DFFFFFFF9EF7FFFFDFFFF7BDA260
:103BF0001000000000000000000000410861080003
:103C000000042196B5FFFF3CE7FFFFFFFFFFFFBA6F
:103C1000D62842FFFFDFFF9AD6410800000000418E
:103C2000082000000020000000000000002000002C
:103C3000000000410882104108610859CEDFFFFFF3
:103C4000FFCB5A9AD6BEF7FFFFFFFF14A5494A00E3
:103C500000410820000000000000000000000000FB
:103C600000000000000000000059CEFFFFBEF7DF9B
:103C7000FFDFFFFFFFFBDEAA52FFFFBEF7B6B5C3B3
:103C8000180000410800004108000000000000008A
:103C90000000000000000000000000410800008259
:103CA0001055ADFFFF7DEFEB5ADBDEDFFFFFFFFFBF
:103CB000FFF39C8A5200002000000000000000007A
:103CC00000000000000000C318718CFFFFFFFFFF21
:103CD000FFFFFFFFFF34A51084FFFFBEF7929400A3
:103CE000000000200041080000000020000000004B
:103CF00000000041086108000000002000000000F2
:103D000000D39CBEF7FFFFEF7B55ADFFFFFFFFFF2A
:103D1000FF242161082000410800002000821000DB
:103D2000000000000000000000000000000000147F
:103D3000A5BEF7FFFFFFFFFFFFFFFF75AD3084FF5C
:103D4000FFDFFF92944108200020002000000000C7
:103D50000000000000000000000000000000000063
:103D600000410820000000AE73FFFFBEF79294D719
:103D7000BD9EF7DFFFFFFF863141080000610800AC
:103D8000000000000082102000200000000000451C
:103D9000299294BAD6FFFFDFFFFFFF3084F7BDDF23
:103DA000FFBEF7CB5A00000000000000000000003A
:103DB0000000000000410800000000410820000051
:103DC000000000000020004D6BDFFFDFFF55AD510C
:103DD0008CFFFFDFFFFFFF2000000000000000203D
:103DE000002000610800000000000000000000004A
:103DF00000000000002421518C79CEFFFFDFFFFF7F
:103E0000FF718CD7BDFFFFFFFF8E73000000000025
:103E10000020000000000000000000000000000082
:103E200000000000000000000020000000CB5AFF4E
:103E3000FFBEF7B6B5518CFFFFFFFF5DEF410800F5
:103E40000061080000000000000000200020006168
:103E50000820000000000045294D6BFFFFFFFFFF19
:103E6000FF108418C6FFFFDFFF694A000020000032
:103E700000000000000000000000006108200000B9
:103E8000000000000020004108200020008A52DFCE
:103E9000FFDFFF38C6EF7BFFFFFFFFFFFF6D6B65A6
:103EA00029000000000000200000000000000000C9
:103EB0000000000000000000000000000045296D27
:103EC0006BFFFFFFFFFFFFCF7B59CEFFFFFFFF0C14
:103ED00063000000004108200020000000000000F6
:103EE00000000000000000000000002000000000B2
:103EF000000000CB5AFFFFFFFFF7BD8E73FFFFFFEF
:103F0000FF9EF78E730421200000000000000000D7
:103F1000000000000000004108A210000000002086
:103F200000DFFFFFFFFFFF518C34A5FFFFDFFFAA7B
:103F300052200020000000000020000000000020AF
:103F400000000061084108000000000000000000BF
:103F5000000000494AFFFFFFFF59CECF7BDFFFFF84
:103F6000FFFFFF7DEF718C00002000000061080062
:103F70000000000000000000000000000000000041
:103F800000A2100000A210BEF7FFFFFFFF6D6B182C
:103F9000C6FFFFDFFF4D6B200020008210000000F5
:103FA0000000000000000000000000000000000011
:103FB0000020000000000020002C63BEF7FFFFF788
:103FC000BDCF7BFFFF3CE7FFFFFFFF8E7341080083
:103FD000000000000000002000000000000000E3DE
:103FE00018000000008210FFFFFFFFFFFF14A5D3A1
:103FF0009CBEF7FFFF1084000000000000000000DE
:104000000020000000410800002000000000002007
:10401000002000200000004108B294FFFFBEF751CD
:104020008C96B5FFFFFFFFFFFFFFFF9EF714A54132
:1040300008000082100000000000000000000000E6
:1040400000000000000000A2100000A6313CE7FFC5
:10405000FFFFFFD7BDCF7BFFFFDFFF718C61080043
:10406000002000A21000002000000000000000203E
:1040700000410820000000000020000000A210AE57
:1040800073FFFFBEF7CF7BD7BDBEF7FFFFBEF7FFC5
:10409000FFDFFF38C6000000000000000000000045
:1040A000000000410800000000EB5A96B5FFFFFF3A
:1040B000FFFFFFDBDE694AFFFFFFFFF7BD200000C7
:1040C00000200041080000000020000000610841BD
:1040D0000820000000000000000000410800001C53
:1040E000E7DFFFFFFFEB5ADBDEFFFFFFFF7DEFFFA8
:1040F000FFFFFFB6B5E318200061080000000000D4
:104100000000000000000000000000000000008A25
:104110005296B5FFFFDFFFDFFFDBDE8E73FFFFDFB1
:10412000FF96B50421000020000000410800002097
:1041300000410820000000000000004108000000CD
:104140000000000421D7BDFFFFFFFF0C637DEFFFE0
:10415000FFFFFFBEF7FFFFFFFF18C641080000008A
:1041600000000020000000000041080000E318D714
:10417000BDDFFFDFFF9EF7FFFF7DEF2842BEF7BEEA
:10418000F7FFFF86316108410882102000000041DE
:104190000861084108000000004108821041080041
:1041A000002000694ADFFFFFFFBEF7A631DFFFFFF7
:1041B000FF9EF7DFFFFFFFFFFF75ADE31800004133
:1041C00008000000000000000000000000000000E7
:1041D000000000E318D7BDFFFFFFFFDFFFFFFF3C3C
:1041E000E7A631DFFFDFFF3CE78A526108000020CD
:1041F00000410800002000410841080000000000C4
:10420000002000200000000000494A5DEFFFFFDBB6
:10421000DE8A52BEF7DFFFFFFFFFFFFFFFDFFF96E3
:10422000B561080000000000000000200000002030
:104230000061088A52FFFFDFFFFFFFDFFFFFFFDFA4
:10424000FFB2943084FFFFFFFF34A5A631000000C9
:1042500000000000000000200000000000000061DD
:1042600008821000000000610859CE5DEFFFFFD307
:104270009CEF7BFFFFFFFFFFFFFFFF9EF759CE8EF6
:1042800073610800006108200000000000000000C9
:10429000000000000000000000494ADFFFFFFF7D32
:1042A000EFFFFFFFFFDFFF3084D39CFFFFFFFFF333
:1042B0009C86310000200041082000000000002002
:1042C000004108200000000000000020004529F304
:1042D0009CFFFFDFFFB294CF7BFFFFDFFFFFFFFFFD
:1042E000FF9EF7BAD6EF7B410800000000000000F7
:1042F0000041082000000000000842DFFFFFFFDF50
:10430000FFDFFF7DEFFFFFDBDEE7399EF7FFFFDF1B
:10431000FF3084C318000000006108A2104108416A
:10432000088210C318821000000000A631CF7BBEA7
:10433000F7FFFFBAD6AA521CE7FFFF7DEFFFFF147D
:10434000A51084AA520421000000004108200000AA
:1043500000000000000000000000000000000065F8
:1043600029FFFFFFFFFFFFFFFF9EF7DFFFBEF78A7A
:104370005238C6FFFFDFFF1084E318200000006101
:104380000800000000000020000000000000000005
:1043900000242130849EF7FFFF38C6CF7B9AD6FFDA
:1043A000FFFFFFDBDE96B51084CB5A24210000000E
:1043B000000000000020000000200020000000C3DA
:1043C00018D7BD7DEFDFFFFFFFFFFFFFFF9EF7D395
:1043D0009CCF7BFFFFFFFFFBDE718CA6312000002E
:1043E0000000000000000000000000000000008647
:1043F00031B2949EF7FFFFDFFF718C1084FFFFFF47
:10440000FF5DEF92942421821020000000410820DB
:10441000002000000000000000000000000000007C
:104420000000000000200038C61CE7FFFFFFFFFF70
:10443000FFBEF7FFFFAE73F39C5DEFFFFF3CE7D3DA
:104440009C24210000000020004108610820000099
:104450000000006108652910847DEFFFFF5DEFEF2C
:104460007B55ADBEF7FFFFBEF710846529410800FC
:1044700000000020000000000000004108000000D3
:1044800000200041080000494A8E7396B538C65D89
:10449000EFFFFFFFFFBEF7AA5296B53CE7FFFFBE56
:1044A000F7F39CCB5A452900000000200000006172
:1044B0000865290C63F39CBAD6FFFFBEF7D39C9224
:1044C000949AD6DFFFFFFF9EF745290000000020E9
:1044D000000000C318610800002000000000000078
:1044E000000000000000000000000000008A52AE42
:1044F0007334A5D7BD5DEFFFFFDFFFFBDEB2941481
:10450000A53CE7FFFFDFFF718C4D6B410800000009
:1045100000000000002000E318A63114A5FBDEDF38
:10452000FF7DEF14A5929479CEFFFFFFFFBEF78ABF
:1045300052000000000000200024210000000000C4
:1045400000000020002000000061080000000020A2
:10455000000000C318694A7DEFFFFFDFFF5DEF0831
:104560004218C69EF7FFFFFFFFFFFF18C6CF7B2C48
:10457000630842EB5A518CF7BD7DEFFFFFFFFFFF51
:10458000FF96B50842BAD6FFFFDFFFFFFFDFFF4906
:104590004A00002000410800008210000000004195
:1045A0000800000000000000000000000000000003
:1045B00000410800000000410841082C637DEFDF46
:1045C000FFFFFF34A50C6318C69EF7DFFFFFFFFF58
:1045D000FF18C69294EB5A494AEB5A718C79CEFF78
:1045E000FFFFFFFFFFDFFF14A5AA52DBDEBEF7FFD0
:1045F000FFDFFFFFFF28420000C318C318000000C0
:1046000000000000000000000000000000000000AA
:104610000000000000000082100000000079CEFFC2
:10462000FFFFFFBEF73CE7494AD39C5DEFFFFFDF8A
:10463000FFDFFFFFFFFFFFFFFFDFFFFFFFFFFFDFEA
:10464000FFFFFF1CE714A58A521CE7DFFFBEF7FF40
:10465000FFFFFFDFFF55AD0000000000000000007D
:10466000000000000000000000000000000000004A
:1046700000000000000000000020000000A2102048
:104680000000009AD6FFFFDFFFFFFF38C64D6B30FA
:10469000845DEFFFFFFFFFBEF7FFFFFFFFFFFFFFA0
:1046A000FFDFFFBEF7FFFFFFFFDBDEEF7BCF7B7996
:1046B000CEFFFFFFFFDFFFFFFFBEF775AD821000EB
:1046C0000041084108000000000000000000000058
:1046D0000000000000000000000000000000004199
:1046E0000845295DEFDFFFBEF7FFFFDFFFBEF730B4
:1046F000842842B294BEF7FFFFDFFFDFFFDFFF9E9B
:10470000F7FFFFFFFFFBDE34A5CF7BEB5AFBDEFF9D
:10471000FFBEF7DFFFDFFF5DEFFFFFFFFF200020A1
:104720000000000000000000000000000000000089
:104730000000000000000000000000000020004118
:104740000800000000000004219EF7FFFFFFFFFFAC
:10475000FFFFFFFBDE718CCB5A718CDFFFDFFFFFA9
:10476000FFBEF77DEFDFFFFFFFFFFFFFFF4D6B9207
:1047700094F39C38C6BEF7FFFFFFFFFFFFBEF7FFB5
:10478000FF18C624210000000020002000000000C7
:104790000000000000000000000000000000000019
:1047A000000000000082108A52FFFFFFFF7DEFFF34
:1047B000FFFFFFFFFFFFFFFBDE518C494A8A5210CB
:1047C00084F7BD79CE55ADEF7BCB5A694A4D6BB6B8
:1047D000B5FFFFDFFFFFFFBEF7FFFFFFFFFFFFBEDD
:1047E000F7F7BD20002000200000000000000000BE
:1047F00000000000000000000000000000000000B9
:1048000000000000004108000000004108494AFF84
:10481000FFBEF7FFFF7DEFFFFFFFFF9EF7BAD61049
:10482000842842EB5AB29418C659CEB6B53084AA41
:1048300052E73914A5F7BD1CE7FFFFFFFF9EF7FF06
:10484000FFFFFFFFFFFFFFF7BD8631000000000004
:104850000020000000000000000000000000000038
:104860000000000000000000004108A210AA52FF52
:10487000FFFFFF9EF7DFFFBEF79EF7FFFFFFFFFF83
:10488000FF9EF7BAD634A5518C6D6BB294B6B59A2B
:10489000D69EF7FFFFFFFFFFFFFFFFFBDE9AD67DEF
:1048A000EFFFFFFFFF9AD6EB5A2000200000000028
:1048B00000000000000000000000000000000000F8
:1048C0000000000000000000000000200020002088
:1048D000006108AA52FFFFFFFFFFFFFFFFFFFFFF7E
:1048E000FFFFFFDFFF5DEFDFFF59CE75AD10844D99
:1048F0006B108475ADDBDEBEF7FFFFBEF7FFFFFF79
:10490000FFDBDE79CE9EF7DFFF7DEF38C64D6B61B2
:104910000800004108200000000000000000000026
:104920000000000000000000000000000000002067
:10493000002000E7399AD6FFFFFFFFFFFF5DEFFF82
:10494000FFFFFFFFFFDFFFFFFFFFFFDFFFFFFFDFD7
:10495000FFFFFFFFFFFFFFFFFFFFFFBEF7DFFF1CB3
:10496000E7AA520421E739494A8A52E73900000090
:104970000000000000000000000000000000000037
:1049800000000000000000000000000000000061C6
:10499000080000000020000000C7399AD6FFFFDFA2
:1049A000FFFFFFDFFFBEF7FFFFFFFF9EF7FFFFFFE9
:1049B000FFDFFFBEF7FFFFFFFFFFFFFFFFDFFFFF90
:1049C000FFDFFFFFFF9AD68A52C3186529A631EF91
:1049D0007B694A82100000000041082000000000AE
:1049E00000000000000000000000000000000000C7
:1049F00000000000000000000041088E7334A5F79D
:104A0000BDF39CEF7BC318EF7BFFFFFFFF7DEFFF44
:104A1000FFDFFFBEF7FFFFFFFFFFFFDFFFBEF7DF98
:104A2000FFFFFFFFFFBAD6652900002000000082CB
:104A300010610841080000000000000000000000B4
:104A40000000000000000000000000000000000066
:104A5000000000000061080000000020000000616C
:104A6000086D6B55ADFFFF75AD0842C3181084FF8C
:104A7000FFFFFF5DEFDFFFDFFFFFFFFFFFDFFFBE99
:104A8000F7FFFFFFFFBEF7BEF7FFFFD7BD452900C9
:104A9000000000000041080000000082102000001B
:104AA00000000020000000000000000000000000E6
:104AB00000000000000000000000000000410800AD
:104AC00000A21024212421610800000000042134E8
:104AD000A5BEF7FFFFDFFFFFFFFFFFFFFF7DEFBE7C
:104AE000F7FFFFFFFFFFFFFFFF7DEFB2946108417B
:104AF00008610800004108000000000000000000FC
:104B000000000000000000000000000000000000A5
:104B10000000000000000000000000000020002055
:104B200000410820000000A2108631200000000093
:104B3000000000652934A5FFFFFFFFDFFFBEF7FF80
:104B4000FFFFFF9EF7FFFFFFFFBEF7FFFFFFFFFF27
:104B5000FFD39C610820008210821000000000003A
:104B600000A2102000000020002000000000000033
:104B70000000000000000000000000000000000035
:104B8000000000A2102000000000002000000041F2
:104B90000841080000718CFFFFDFFFFFFF9EF7FF59
:104BA000FF2C6341084529D7BDFFFFDFFFDFFFFF73
:104BB000FF10840000000041080000200000006198
:104BC00008200000000000000000000000000000BD
:104BD00000000000000000000000000000000000D5
:104BE000000000610800000000610861080000206A
:104BF0000020000000C31800000000718CFFFFBE01
:104C0000F7FFFFFFFF3CE78E732000452955ADFFFE
:104C1000FFDFFFFFFFFFFF108400000000410800DE
:104C20000082106108000061080000200061080097
:104C30000000000000000000000000000000000074
:104C40000000000000000000000000000000000064
:104C50000000000000000000000000494ABAD6FF32
:104C6000FFFFFFBEF7518C000000000000863134CA
:104C7000A5FFFFDFFF38C6A210610820000000007A
:104C80000000000000000000000000000000000024
:104C90000000000000000000000000000000000014
:104CA0000000000000000000000000000000000004
:104CB000000000000000000000000000006108008B
:104CC00000E739DBDEFFFFFFFFBEF7AE736108418F
:104CD000080000863196B5FFFFDFFF96B508420059
:104CE000000000410800000000000000000000007B
:104CF00000000000000000000000000000000000B4
:104D000000000000000000000000000000000000A3
:104D100000000000000000000000000000A21000E1
:104D20000082106D6BF39C55ADB294652900004173
:104D300008000000002421084286318210610841E9
:104D4000080000000000000000000000000000005B
:104D50000000000000000000000000000000000053
:104D60000000000000000000000000000000000043
:104D70000000000000000000000000000000002013
:104D800000000061080000C318CF7B518C18C6B228
:104D900094C7390000200000000000C318EB5AC778
:104DA00039821000000000200020000000000000F8
:104DB00000000000000000000000000000000000F3
:104DC00000000000000000000000000000000000E3
:104DD00000000000000000000000000000000000D3
:104DE0000000000000000000008210C318E3182437
:104DF0002100000000821061080000000000000097
:104E00000000002000000000000000000000000082
:104E10000000000000000000000000000000000092
:104E20000000000000000000000000000000000082
:104E30000000000000000000000000000000000072
:104E400000000000002000000041080000000004F5
:104E500021C3180421200000000000200061084147
:104E600008200082100000000041086108200000B6
:104E70000000000000000000000000000000000032
:104E80000000000000000000000000000000000022
:104E90000000000000000000000000000000000012
:104EA0000000000000000000000000610841082030
:104EB00000000000004108200000004108410800F7
:104EC00000200020004108821000000000000000C7
:104ED00000000000000000000000000000000000D2
:104EE00000000000000000000000000000000000C2
:104EF00000000000000000000000000000000000B2
:104F00000000000000000000000000410800002038
:104F100000200000000000000000000000610841C7
:104F200008000000000000000000004108A21082FC
:104F30001020000000000020000000000000000021
:104F40000000000000000000000000000000000061
:104F50000000000000000000000000000000000051
:104F60000000000000000000000000000000002021
:104F700000200020004108410820002000410800D6
:104F80000000000000000020000000000000000001
:104F90000000000000000000000000000000000011
:104FA0000000000000000000000000000000000001
:104FB00000000000000000000000000000000000F1
:104FC00000000000000000000000000000000000E1
:104FD0000020000000000041082000000020000028
:104FE00000410800000000410861084108821000EB
:104FF0000020002000000000002000200000000031
:1050000000000000000000000000000000000000A0
:105010000000000000000000000000000000000090
:105020000000000000000000000000000000000080
:105030000000000000410800000000000020000007
:105040000000000000000020002000200041084176
:10505000084108821000000000000000000000006D
:105060000000000000000000000000000000000040
:105070000000000000000000000000000000000030
:105080000000000000000000000000000000000020
:1050900000000000000000200000000000200020B0
:1050A00000000020002000821020000000410800C5
:1050B0000000000000610820000000000000000067
:1050C00000000000000000000000000000000000E0
:1050D00000000000000000000000000000000000D0
:1050E00000000000000000000000000000000000C0
:1050F000000000000000000000000000000000416F
:10510000084108000000000000000000002000200E
:10511000000000000000000000200000000000006F
:10512000000000000000000000000000000000007F
:10513000000000000000000000000000000000006F
:10514000000000000000000000000000000000005F
:10515000000000000000000000000000000000004F
:10516000000000000000000000000000000000003F
:10517000002000200020002000200000000000206F
:105180000020000000000020006108000000000076
:10519000000000000000000000000000000000000F
:1051A00000000000000000000000000000000000FF
:1051B00000000000000000000000000000000000EF
:1051C0000000000000200000000000200041080056
:1051D000000000000000000000200020000000008F
:1051E000000000000000000000000000000000209F
:1051F00000000000000000000000000000000000AF
:10520000000000000000000000000000000000009E
:10521000000000000000000000000000000000008E
:1052200000200000000000200000002000410820B5
:1052300000821000000000000000000000000000DC
:10524000002000000000000000000000000000003E
:10525000000000000000000000000000000000004E
:10526000000000000000000000000000000000003E
:10527000000000000000000000000000000000002E
:10528000000000000000000000000000000000001E
:106B30000000000000000020004108410800008221
:106B400010000041082000000000000000000000CC
:106B50000000000000000041082000C318000020D1
:106B60000000004108410800000000000000000093
:106B7000000000000000002000000000004108416B
:106B800008000000000000000020000000000020BD
:106B9000000000000041080000821000000000A278
:106BA0001000006108000000000000410820000003
:106BB000002000410820000000000000000000004C
:106BC000000000000000000000000041080000413B
:106BD0000841080000821000000000200000002092
:106BE000004108000000000000000000000000005C
:106BF0000000000000000000000000000000000095
:106C00000020006108284265296529000000000075
:106C1000000000000000000000000000006108000B
:106C2000000000000024218210000000002000204D
:106C3000002000200020000000000000002421822D
:106C40001000000000000000004108C318200041AF
:106C5000080000200020000000000000000000618B
:106C60000820000000200000004529E3182421240A
:106C7000210000000061082000200000000000004A
:106C800000000000000000000000000000821082F0
:106C90001000000000A210E31841084108821020F3
:106CA0000020000000200020000000200000000064
:106CB00000000000000000000000000000000000D4
:106CC000000000610861084108863138C618C675A1
:106CD000ADC318000000000000000000000000002C
:106CE000000000000000006108494ABAD6FBDE5DE2
:106CF000EFDFFF3CE73CE73CE73CE73CE73CE73CB9
:106D0000E73CE755AD718C0C63A631C31820000039
:106D10000000000000200000000000000000000053
:106D200000000000000000000000008210E7395958
:106D3000CEBAD6F7BD55AD4529000082100000201F
:106D40000000000000000000000000000000000043
:106D5000000000000020000000A63134A5BAD61CB7
:106D6000E71CE724214108000000000000000000AB
:106D700000200000000000000000000000000000F3
:106D8000000000000000000000000020000000865D
:106D900031FFFFFFFF5DEFC318000000000000009F
:106DA000000000000000000000000020000000A61D
:106DB000315DEF9EF7FFFFFFFFFFFFFFFFFFFFFFCC
:106DC000FFFFFFFFFFFFFFFFFFDFFFFFFFDFFF38DA
:106DD000C6EF7BC7398210000000000000200020B1
:106DE00000000000002000200082102000000000B1
:106DF000002000E739BEF7FFFFFFFFBEF76D6B20F5
:106E00000000000000000041080000000000000039
:106E10000000000000000000004108000000004DDC
:106E20006B3CE7FFFFFFFFDFFFA6314108000000DA
:106E30000000000000000020000000000000000032
:106E40000000000000000000000000000000000042
:106E500000410800006529DFFF5DEFFBDE20000038
:106E60000000000000000000000000000000000022
:106E700000610800008631FFFFFFFFFFFF18C69E7C
:106E8000F79EF7BEF7BEF7BEF7DFFFDFFFDFFFBEFF
:106E9000F7BEF7FFFFFFFFDFFF9AD68E73E3180000
:106EA00000000041086108000000002000200020D0
:106EB00000000020002000200086319EF77DEFDFDB
:106EC000FFDFFF96B52421000061080000000000EC
:106ED0000000000000000000000000000000002092
:106EE000000000E31875ADFFFFFFFF9EF7DFFFC74F
:106EF00039200000000000200000000000200000F9
:106F00000000000000000000000000000000000081
:106F100000000000006108A2104108A631FFFFDF59
:106F2000FF3CE741080000000000000000000000F6
:106F300000000000000000821000004529DFFFBEB5
:106F4000F779CEA6310000000000000000200020EC
:106F500000410841088A52108438C65DEFFFFFFFE8
:106F6000FF79CEF39CC31800000000610800000008
:106F7000002000000000000000000000002000864B
:106F800031FFFFFFFFFFFFFFFFDFFF6D6B200020E2
:106F900000000020000000000000000000000000D1
:106FA000000000000000004108EB5A1CE7FFFF9EB4
:106FB000F79EF7FFFFA63100000000200000002030
:106FC00000000000000000000000000000000000C1
:106FD0000000000000000000000000000020000091
:106FE000006529FFFFFFFF1CE741080000000000CB
:106FF0000000000000000000000000000061080028
:1070000000C739FFFFFFFF9AD60000000000000014
:10701000002000200020002000200000006108A6C1
:10702000314D6BB6B5BEF7FFFFDFFFEF7B242100CC
:10703000000000000000002000000061084108413D
:1070400008000000002421DFFFBEF79EF73CE7FFA9
:10705000FFB6B56529000000000000000000000038
:10706000000000000000000000000000008631D792
:10707000BDFFFFBEF77DEFFFFFFFFFC73900000038
:1070800000200000002000200000000000000000A0
:1070900000000000000000000000000000000000F0
:1070A00000410820000000E739FFFFFFFFBAD68249
:1070B00010000000000000000000000000000000C0
:1070C00000000020000000E739BEF7FFFF1CE700CA
:1070D00000000000000000000000000000000000B0
:1070E0000020002000000020008A52F7BDBEF7FFFC
:1070F000FFDFFF4D6B610800000000200020000052
:1071000000000000004108200020004529FFFFFF8B
:10711000FF1CE779CEFFFFFFFF0C6300002000009B
:10712000000000000000000000000000000000005F
:10713000002000CB5A9EF7FFFF59CEDBDEBEF7DF03
:10714000FFC7392000200020000000410820000077
:10715000000000000000000000000000000000002F
:10716000000000000000000000000000004529FFB2
:10717000FFFFFF5DEF0000000000000000000000C6
:10718000000000000000000000000000004529FF92
:10719000FFFFFF5DEF0000000000000000000000A6
:1071A000000000000000000000200020000000009F
:1071B000002421D39CFFFFDFFF5DEF8A5200000017
:1071C000006108410800000000000000000000000D
:1071D000002421FFFFFFFFBAD6CB5AFFFFFFFF7944
:1071E000CEE3180000000000008210000000004103
:1071F0000800004108000020009AD65DEFFFFF2C38
:107200006318C6FFFFFFFFA631200000002000002A
:10721000000000000000000000000000000000006E
:10722000000000000000000000000000000000005E
:107230000000004529FFFFFFFF5DEF000000000098
:10724000000000000000000000000000000000003E
:107250000000004529FFFFFFFF5DEF000000000078
:1072600000000000000000000000000000000041DD
:107270000800002000610820008A52BAD6FFFF9E55
:10728000F7EF7BA210000041082000000000000082
:10729000000000000000002421FFFFFFFF38C68629
:1072A0003118C6FFFF1CE76D6B82104108000020FB
:1072B000000000200020000000200000002C637D62
:1072C000EFFFFF59CE0842B6B5FFFFFFFFA6312002
:1072D000000000200000000000000000000000008E
:1072E000000000000000000000000000000000009E
:1072F0000000000000000000004529FFFFFFFF5DC7
:10730000EF0000000000000000000000000000008E
:107310000000000000000000004529FFFFFFFF5DA6
:10732000EF0000000000000000000000000000006E
:10733000000000000020000000000082100000415A
:1073400008CF7BFFFFFFFFF7BDA631000020002024
:10735000000000000000000000000000002421FFE9
:10736000FFFFFF18C641086D6B9EF7FFFF59CE6502
:107370002920002000000020002000200000000044
